{
  "contractName": "Vote",
  "abi": [
    {
      "constant": true,
      "inputs": [
        {
          "name": "",
          "type": "uint256"
        }
      ],
      "name": "proposals",
      "outputs": [
        {
          "name": "name",
          "type": "string"
        },
        {
          "name": "voteCount",
          "type": "uint256"
        }
      ],
      "payable": false,
      "stateMutability": "view",
      "type": "function"
    },
    {
      "constant": true,
      "inputs": [
        {
          "name": "",
          "type": "uint256"
        }
      ],
      "name": "voters",
      "outputs": [
        {
          "name": "ci",
          "type": "uint256"
        },
        {
          "name": "voted",
          "type": "bool"
        }
      ],
      "payable": false,
      "stateMutability": "view",
      "type": "function"
    },
    {
      "constant": false,
      "inputs": [
        {
          "name": "proposalNames",
          "type": "string[]"
        }
      ],
      "name": "AddListas",
      "outputs": [],
      "payable": false,
      "stateMutability": "nonpayable",
      "type": "function"
    },
    {
      "constant": false,
      "inputs": [
        {
          "name": "_proposal",
          "type": "uint256"
        },
        {
          "name": "_ci",
          "type": "uint256"
        }
      ],
      "name": "vote",
      "outputs": [],
      "payable": false,
      "stateMutability": "nonpayable",
      "type": "function"
    },
    {
      "constant": true,
      "inputs": [],
      "name": "winningProposal",
      "outputs": [
        {
          "name": "winningProposal_",
          "type": "uint256"
        }
      ],
      "payable": false,
      "stateMutability": "view",
      "type": "function"
    },
    {
      "constant": true,
      "inputs": [],
      "name": "empateLists",
      "outputs": [
        {
          "name": "empate",
          "type": "string"
        }
      ],
      "payable": false,
      "stateMutability": "view",
      "type": "function"
    },
    {
      "constant": true,
      "inputs": [],
      "name": "winnerName",
      "outputs": [
        {
          "name": "winnerName_",
          "type": "string"
        }
      ],
      "payable": false,
      "stateMutability": "view",
      "type": "function"
    },
    {
      "constant": true,
      "inputs": [],
      "name": "getStats",
      "outputs": [
        {
          "components": [
            {
              "name": "name",
              "type": "string"
            },
            {
              "name": "voteCount",
              "type": "uint256"
            }
          ],
          "name": "proposals_",
          "type": "tuple[]"
        }
      ],
      "payable": false,
      "stateMutability": "view",
      "type": "function"
    }
  ],
  "bytecode": "0x608060405234801561001057600080fd5b5061111c806100206000396000f3fe608060405260043610610088576000357c010000000000000000000000000000000000000000000000000000000090048063013cf08b1461008d578063303032e3146100cb5780634763ada4146100f6578063609ff1bd1461011f578063b384abef1461014a578063c59d484714610173578063da58c7d91461019e578063e2ba53f0146101dc575b600080fd5b34801561009957600080fd5b506100b460048036036100af9190810190610d0a565b610207565b6040516100c2929190610f1f565b60405180910390f35b3480156100d757600080fd5b506100e06102d2565b6040516100ed9190610efd565b60405180910390f35b34801561010257600080fd5b5061011d60048036036101189190810190610cc9565b610507565b005b34801561012b57600080fd5b506101346105ab565b6040516101419190610f6f565b60405180910390f35b34801561015657600080fd5b50610171600480360361016c9190810190610d33565b610658565b005b34801561017f57600080fd5b5061018861071b565b6040516101959190610edb565b60405180910390f35b3480156101aa57600080fd5b506101c560048036036101c09190810190610d0a565b610826565b6040516101d3929190610f8a565b60405180910390f35b3480156101e857600080fd5b506101f1610857565b6040516101fe9190610efd565b60405180910390f35b60018181548110151561021657fe5b9060005260206000209060020201600091509050806000018054600181600116156101000203166002900480601f0160208091040260200160405190810160405280929190818152602001828054600181600116156101000203166002900480156102c25780601f10610297576101008083540402835291602001916102c2565b820191906000526020600020905b8154815290600101906020018083116102a557829003601f168201915b5050505050908060010154905082565b60606000809050600080905060008090505b600180549050811015610501578260018281548110151561030157fe5b90600052602060002090600202016001015411156103445760018181548110151561032857fe5b90600052602060002090600202016001015492508091506104f4565b8260018281548110151561035457fe5b90600052602060002090600202016001015414156104f35760018281548110151561037b57fe5b906000526020600020906002020160000160018281548110151561039b57fe5b906000526020600020906002020160000160405160200180807fc2a148617920756e20656d7061746520656e747265206c612000000000000000815250601901838054600181600116156101000203166002900480156104325780601f10610410576101008083540402835291820191610432565b820191906000526020600020905b81548152906001019060200180831161041e575b5050807f2079200000000000000000000000000000000000000000000000000000000000815250600301828054600181600116156101000203166002900480156104b35780601f106104915761010080835404028352918201916104b3565b820191906000526020600020905b81548152906001019060200180831161049f575b5050807f21000000000000000000000000000000000000000000000000000000000000008152506001019250505060405160208183030381529060405293505b5b80806001019150506102e4565b50505090565b60008090505b81518110156105a75760016040805190810160405280848481518110151561053157fe5b906020019060200201518152602001600081525090806001815401808255809150509060018203906000526020600020906002020160009091929091909150600082015181600001908051906020019061058c929190610b44565b5060208201518160010155505050808060010191505061050d565b5050565b6000806000905060008090505b60018054905081101561065357816001828154811015156105d557fe5b9060005260206000209060020201600101541115610618576001818154811015156105fc57fe5b9060005260206000209060020201600101549150809250610646565b8160018281548110151561062857fe5b906000526020600020906002020160010154141561064557606392505b5b80806001019150506105b8565b505090565b600080600083815260200190815260200160002090508060010160009054906101000a900460ff161515156106c2576040517f08c379a00000000000000000000000000000000000000000000000000000000081526004016106b990610f4f565b60405180910390fd5b81816000018190555060018160010160006101000a81548160ff021916908315150217905550600180848154811015156106f857fe5b906000526020600020906002020160010160008282540192505081905550505050565b60606001805480602002602001604051908101604052809291908181526020016000905b8282101561081d5783829060005260206000209060020201604080519081016040529081600082018054600181600116156101000203166002900480601f0160208091040260200160405190810160405280929190818152602001828054600181600116156101000203166002900480156107fb5780601f106107d0576101008083540402835291602001916107fb565b820191906000526020600020905b8154815290600101906020018083116107de57829003601f168201915b505050505081526020016001820154815250508152602001906001019061073f565b50505050905090565b60006020528060005260406000206000915090508060000154908060010160009054906101000a900460ff16905082565b606060636108636105ab565b1415610878576108716102d2565b90506109e8565b60016108826105ab565b81548110151561088e57fe5b90600052602060002090600202016000016108cf60016108ac6105ab565b8154811015156108b857fe5b9060005260206000209060020201600101546109eb565b604051602001808380546001816001161561010002031660029004801561092d5780601f1061090b57610100808354040283529182019161092d565b820191906000526020600020905b815481529060010190602001808311610919575b5050807f2020000000000000000000000000000000000000000000000000000000000000815250600201807f2020546f74616c20646520766f746f733a20000000000000000000000000000081525060120182805190602001908083835b6020831015156109b0578051825260208201915060208101905060208303925061098b565b6001836020036101000a0380198251168184511680821785525050505050509050019250505060405160208183030381529060405290505b90565b60606000821415610a33576040805190810160405280600181526020017f30000000000000000000000000000000000000000000000000000000000000008152509050610b3f565b600082905060005b600082141515610a61578080600101915050600a82811515610a5957fe5b049150610a3b565b6060816040519080825280601f01601f191660200182016040528015610a965781602001600182028038833980820191505090505b50905060006001830390505b600086141515610b3757600a86811515610ab857fe5b066030017f010000000000000000000000000000000000000000000000000000000000000002828280600190039350815181101515610af357fe5b9060200101907effffffffffffffffffffffffffffffffffffffffffffffffffffffffffffff1916908160001a905350600a86811515610b2f57fe5b049550610aa2565b819450505050505b919050565b828054600181600116156101000203166002900490600052602060002090601f016020900481019282601f10610b8557805160ff1916838001178555610bb3565b82800160010185558215610bb3579182015b82811115610bb2578251825591602001919060010190610b97565b5b509050610bc09190610bc4565b5090565b610be691905b80821115610be2576000816000905550600101610bca565b5090565b90565b600082601f8301121515610bfc57600080fd5b8135610c0f610c0a82610fe0565b610fb3565b9150818183526020840193506020810190508360005b83811015610c555781358601610c3b8882610c5f565b845260208401935060208301925050600181019050610c25565b5050505092915050565b600082601f8301121515610c7257600080fd5b8135610c85610c8082611008565b610fb3565b91508082526020830160208301858383011115610ca157600080fd5b610cac83828461108f565b50505092915050565b6000610cc18235611085565b905092915050565b600060208284031215610cdb57600080fd5b600082013567ffffffffffffffff811115610cf557600080fd5b610d0184828501610be9565b91505092915050565b600060208284031215610d1c57600080fd5b6000610d2a84828501610cb5565b91505092915050565b60008060408385031215610d4657600080fd5b6000610d5485828601610cb5565b9250506020610d6585828601610cb5565b9150509250929050565b6000610d7a82611041565b80845260208401935083602082028501610d9385611034565b60005b84811015610dcc578383038852610dae838351610e8f565b9250610db982611062565b9150602088019750600181019050610d96565b508196508694505050505092915050565b610de68161106f565b82525050565b6000610df782611057565b808452610e0b81602086016020860161109e565b610e14816110d1565b602085010191505092915050565b6000610e2d8261104c565b808452610e4181602086016020860161109e565b610e4a816110d1565b602085010191505092915050565b6000600e82527f416c726561647920766f7465642e0000000000000000000000000000000000006020830152604082019050919050565b60006040830160008301518482036000860152610eac8282610e22565b9150506020830151610ec16020860182610ecc565b508091505092915050565b610ed58161107b565b82525050565b60006020820190508181036000830152610ef58184610d6f565b905092915050565b60006020820190508181036000830152610f178184610dec565b905092915050565b60006040820190508181036000830152610f398185610e22565b9050610f486020830184610ecc565b9392505050565b60006020820190508181036000830152610f6881610e58565b9050919050565b6000602082019050610f846000830184610ecc565b92915050565b6000604082019050610f9f6000830185610ecc565b610fac6020830184610ddd565b9392505050565b6000604051905081810181811067ffffffffffffffff82111715610fd657600080fd5b8060405250919050565b600067ffffffffffffffff821115610ff757600080fd5b602082029050602081019050919050565b600067ffffffffffffffff82111561101f57600080fd5b601f19601f8301169050602081019050919050565b6000602082019050919050565b600081519050919050565b600081519050919050565b600081519050919050565b6000602082019050919050565b60008115159050919050565b6000819050919050565b6000819050919050565b82818337600083830152505050565b60005b838110156110bc5780820151818401526020810190506110a1565b838111156110cb576000848401525b50505050565b6000601f19601f830116905091905056fea265627a7a7230582071371943701238a4f6b4a3e99db91c314781078d2a0d46b8ba68f2d7ff726eaa6c6578706572696d656e74616cf50037",
  "source": "//SPDX-License-Identifier: MIT\npragma solidity >=0.4.4 <0.7.0;\npragma experimental ABIEncoderV2;\n\n\ncontract Vote {\n    \n    struct Voter {\n        uint ci;\n        bool voted;\n    }\n\n    struct Proposal {\n        string name;   // short name (up to 32 bytes)\n        uint voteCount; // number of accumulated votes\n    }\n\n    mapping(uint => Voter) public voters;\n\n    Proposal[] public proposals;\n    \n    function AddListas(string[] memory proposalNames) public {\n       for (uint i = 0; i < proposalNames.length; i++) {\n            proposals.push(\n                Proposal({\n                    name: proposalNames[i],\n                    voteCount: 0\n                })\n            );\n        }\n    }\n\n    /** \n     * @dev Store the person who vote. And compute the count in proposals\n     */\n    function vote(uint _proposal, uint _ci) public {\n        Voter storage sender = voters[_ci];\n        require(!sender.voted, \"Already voted.\");\n        sender.ci = _ci;\n        sender.voted = true;\n        proposals[_proposal].voteCount += 1;\n    }\n\n\n    /** \n     * @dev Computes the winning proposal taking all previous votes into account.\n     * @return winningProposal_ index of winning proposal in the proposals array\n     */\n    function winningProposal() public view\n            returns (uint winningProposal_)\n    {\n        uint winningVoteCount = 0;\n        //Recorremos el array de listas para determinar la lista con un numero mayor de votos\n        for (uint p = 0; p < proposals.length; p++) {\n            if (proposals[p].voteCount > winningVoteCount) {\n                winningVoteCount = proposals[p].voteCount;\n                winningProposal_ = p;\n            }else{\n                //comprobamos si ha habido un empate entre los candidatos\n                if (proposals[p].voteCount == winningVoteCount) {\n                winningProposal_ = 99;\n            }\n            }\n        }\n    }\n\n\n    //funcion para conocer las listas que tienen empate\n     function empateLists() public view\n            returns (string memory empate)\n    {\n        uint winningVoteCount = 0;\n        uint listaMayor=0;\n    \n        //Recorremos el array de listas para determinar la lista con un numero mayor de votos\n        for (uint p = 0; p < proposals.length; p++) {\n            if (proposals[p].voteCount > winningVoteCount) {\n                winningVoteCount = proposals[p].voteCount;\n                listaMayor = p;\n                \n            }else{\n                //comprobamos si ha habido un empate entre los candidatos\n                if (proposals[p].voteCount == winningVoteCount) {\n                empate=string(abi.encodePacked(\"¡Hay un empate entre la \", proposals[listaMayor].name, \" y \",proposals[p].name,\"!\"));\n            }\n            }\n\n             \n        }\n    }\n\n    /** \n     * @dev Calls winnerName() function to get the name od the proposal with the\n     * highest count\n     * @return winnerName_ the name of the winner\n     */\n    function winnerName() public view returns (string memory winnerName_)\n    {\n\n        if(winningProposal()==99){\n            winnerName_=empateLists();\n        }else{\n            winnerName_ =string(abi.encodePacked(proposals[winningProposal()].name, \"  \",\"  Total de votos: \", \n                    uint2str(proposals[winningProposal()].voteCount)));\n        }\n        \n    }\n\n\nfunction uint2str(uint _i) internal pure returns (string memory _uintAsString) {\n        if (_i == 0) {\n            return \"0\";\n        }\n        uint j = _i;\n        uint len;\n        while (j != 0) {\n            len++;\n            j /= 10;\n        }\n        bytes memory bstr = new bytes(len);\n        uint k = len - 1;\n        while (_i != 0) {\n            bstr[k--] = byte(uint8(48 + _i % 10));\n            _i /= 10;\n        }\n        return string(bstr);\n    }\n    \n    /** \n     * @dev Calls getStats() function to get the all the proposalt at the block\n     * @return proposals_ array\n     */\n    function getStats() public view returns (Proposal[] memory proposals_) {\n        return proposals;\n    }\n}\n\n",
  "sourcePath": "C:\\Users\\alekz\\OneDrive\\Documentos\\Tesis-e-vote-blockchain-MERN-master\\contracts\\Vote.sol",
  "compiler": {
    "name": "solc",
    "version": "0.5.1+commit.c8a2cb62.Emscripten.clang"
  },
  "schemaVersion": "3.4.4",
  "updatedAt": "2022-04-01T07:44:52.673Z",
  "networkType": "ethereum",
  "devdoc": {
    "methods": {
      "getStats()": {
        "details": "Calls getStats() function to get the all the proposalt at the block",
        "return": "proposals_ array"
      },
      "vote(uint256,uint256)": {
        "details": "Store the person who vote. And compute the count in proposals"
      },
      "winnerName()": {
        "details": "Calls winnerName() function to get the name od the proposal with the highest count",
        "return": "winnerName_ the name of the winner"
      },
      "winningProposal()": {
        "details": "Computes the winning proposal taking all previous votes into account.",
        "return": "winningProposal_ index of winning proposal in the proposals array"
      }
    }
  },
  "userdoc": {
    "methods": {}
  }
}