{
  "contractName": "Vote",
  "abi": [
    {
      "inputs": [],
      "stateMutability": "nonpayable",
      "type": "constructor"
    },
    {
      "inputs": [
        {
          "internalType": "uint256",
          "name": "",
          "type": "uint256"
        }
      ],
      "name": "proposals",
      "outputs": [
        {
          "internalType": "string",
          "name": "name",
          "type": "string"
        },
        {
          "internalType": "uint256",
          "name": "voteCount",
          "type": "uint256"
        }
      ],
      "stateMutability": "view",
      "type": "function",
      "constant": true
    },
    {
      "inputs": [
        {
          "internalType": "uint256",
          "name": "",
          "type": "uint256"
        }
      ],
      "name": "voters",
      "outputs": [
        {
          "internalType": "uint256",
          "name": "ci",
          "type": "uint256"
        },
        {
          "internalType": "bool",
          "name": "voted",
          "type": "bool"
        }
      ],
      "stateMutability": "view",
      "type": "function",
      "constant": true
    },
    {
      "inputs": [
        {
          "internalType": "string[]",
          "name": "proposalNames",
          "type": "string[]"
        }
      ],
      "name": "AddListas",
      "outputs": [],
      "stateMutability": "nonpayable",
      "type": "function"
    },
    {
      "inputs": [
        {
          "internalType": "uint256",
          "name": "_proposal",
          "type": "uint256"
        },
        {
          "internalType": "uint256",
          "name": "_ci",
          "type": "uint256"
        }
      ],
      "name": "vote",
      "outputs": [],
      "stateMutability": "nonpayable",
      "type": "function"
    },
    {
      "inputs": [],
      "name": "winningProposal",
      "outputs": [
        {
          "internalType": "uint256",
          "name": "winningProposal_",
          "type": "uint256"
        }
      ],
      "stateMutability": "view",
      "type": "function",
      "constant": true
    },
    {
      "inputs": [],
      "name": "winnerName",
      "outputs": [
        {
          "internalType": "string",
          "name": "winnerName_",
          "type": "string"
        }
      ],
      "stateMutability": "view",
      "type": "function",
      "constant": true
    },
    {
      "inputs": [],
      "name": "getStats",
      "outputs": [
        {
          "components": [
            {
              "internalType": "string",
              "name": "name",
              "type": "string"
            },
            {
              "internalType": "uint256",
              "name": "voteCount",
              "type": "uint256"
            }
          ],
          "internalType": "struct Vote.Proposal[]",
          "name": "proposals_",
          "type": "tuple[]"
        }
      ],
      "stateMutability": "view",
      "type": "function",
      "constant": true
    }
  ],
  "bytecode": "0x608060405234801561001057600080fd5b50610ea9806100206000396000f3fe608060405234801561001057600080fd5b506004361061007d5760003560e01c8063b384abef1161005b578063b384abef146100ed578063c59d484714610109578063da58c7d914610127578063e2ba53f0146101585761007d565b8063013cf08b146100825780634763ada4146100b3578063609ff1bd146100cf575b600080fd5b61009c60048036038101906100979190610705565b610176565b6040516100aa9291906107da565b60405180910390f35b6100cd60048036038101906100c89190610a25565b610232565b005b6100d76102d9565b6040516100e49190610a6e565b60405180910390f35b61010760048036038101906101029190610a89565b610361565b005b610111610430565b60405161011e9190610c21565b60405180910390f35b610141600480360381019061013c9190610705565b61052b565b60405161014f929190610c5e565b60405180910390f35b61016061055c565b60405161016d9190610c87565b60405180910390f35b6001818154811061018657600080fd5b90600052602060002090600202016000915090508060000180546101a990610cd8565b80601f01602080910402602001604051908101604052809291908181526020018280546101d590610cd8565b80156102225780601f106101f757610100808354040283529160200191610222565b820191906000526020600020905b81548152906001019060200180831161020557829003601f168201915b5050505050908060010154905082565b60005b81518110156102d5576001604051806040016040528084848151811061025e5761025d610d0a565b5b602002602001015181526020016000815250908060018154018082558091505060019003906000526020600020906002020160009091909190915060008201518160000190805190602001906102b5929190610618565b5060208201518160010155505080806102cd90610d68565b915050610235565b5050565b6000806000905060005b60018054905081101561035c57816001828154811061030557610304610d0a565b5b9060005260206000209060020201600101541115610349576001818154811061033157610330610d0a565b5b90600052602060002090600202016001015491508092505b808061035490610d68565b9150506102e3565b505090565b600080600083815260200190815260200160002090508060010160009054906101000a900460ff16156103c9576040517f08c379a00000000000000000000000000000000000000000000000000000000081526004016103c090610dfd565b60405180910390fd5b81816000018190555060018160010160006101000a81548160ff021916908315150217905550600180848154811061040457610403610d0a565b5b906000526020600020906002020160010160008282546104249190610e1d565b92505081905550505050565b60606001805480602002602001604051908101604052809291908181526020016000905b82821015610522578382906000526020600020906002020160405180604001604052908160008201805461048790610cd8565b80601f01602080910402602001604051908101604052809291908181526020018280546104b390610cd8565b80156105005780601f106104d557610100808354040283529160200191610500565b820191906000526020600020905b8154815290600101906020018083116104e357829003601f168201915b5050505050815260200160018201548152505081526020019060010190610454565b50505050905090565b60006020528060005260406000206000915090508060000154908060010160009054906101000a900460ff16905082565b606060016105686102d9565b8154811061057957610578610d0a565b5b9060005260206000209060020201600001805461059590610cd8565b80601f01602080910402602001604051908101604052809291908181526020018280546105c190610cd8565b801561060e5780601f106105e35761010080835404028352916020019161060e565b820191906000526020600020905b8154815290600101906020018083116105f157829003601f168201915b5050505050905090565b82805461062490610cd8565b90600052602060002090601f016020900481019282610646576000855561068d565b82601f1061065f57805160ff191683800117855561068d565b8280016001018555821561068d579182015b8281111561068c578251825591602001919060010190610671565b5b50905061069a919061069e565b5090565b5b808211156106b757600081600090555060010161069f565b5090565b6000604051905090565b600080fd5b600080fd5b6000819050919050565b6106e2816106cf565b81146106ed57600080fd5b50565b6000813590506106ff816106d9565b92915050565b60006020828403121561071b5761071a6106c5565b5b6000610729848285016106f0565b91505092915050565b600081519050919050565b600082825260208201905092915050565b60005b8381101561076c578082015181840152602081019050610751565b8381111561077b576000848401525b50505050565b6000601f19601f8301169050919050565b600061079d82610732565b6107a7818561073d565b93506107b781856020860161074e565b6107c081610781565b840191505092915050565b6107d4816106cf565b82525050565b600060408201905081810360008301526107f48185610792565b905061080360208301846107cb565b9392505050565b600080fd5b7f4e487b7100000000000000000000000000000000000000000000000000000000600052604160045260246000fd5b61084782610781565b810181811067ffffffffffffffff821117156108665761086561080f565b5b80604052505050565b60006108796106bb565b9050610885828261083e565b919050565b600067ffffffffffffffff8211156108a5576108a461080f565b5b602082029050602081019050919050565b600080fd5b600080fd5b600067ffffffffffffffff8211156108db576108da61080f565b5b6108e482610781565b9050602081019050919050565b82818337600083830152505050565b600061091361090e846108c0565b61086f565b90508281526020810184848401111561092f5761092e6108bb565b5b61093a8482856108f1565b509392505050565b600082601f8301126109575761095661080a565b5b8135610967848260208601610900565b91505092915050565b600061098361097e8461088a565b61086f565b905080838252602082019050602084028301858111156109a6576109a56108b6565b5b835b818110156109ed57803567ffffffffffffffff8111156109cb576109ca61080a565b5b8086016109d88982610942565b855260208501945050506020810190506109a8565b5050509392505050565b600082601f830112610a0c57610a0b61080a565b5b8135610a1c848260208601610970565b91505092915050565b600060208284031215610a3b57610a3a6106c5565b5b600082013567ffffffffffffffff811115610a5957610a586106ca565b5b610a65848285016109f7565b91505092915050565b6000602082019050610a8360008301846107cb565b92915050565b60008060408385031215610aa057610a9f6106c5565b5b6000610aae858286016106f0565b9250506020610abf858286016106f0565b9150509250929050565b600081519050919050565b600082825260208201905092915050565b6000819050602082019050919050565b600082825260208201905092915050565b6000610b1182610732565b610b1b8185610af5565b9350610b2b81856020860161074e565b610b3481610781565b840191505092915050565b610b48816106cf565b82525050565b60006040830160008301518482036000860152610b6b8282610b06565b9150506020830151610b806020860182610b3f565b508091505092915050565b6000610b978383610b4e565b905092915050565b6000602082019050919050565b6000610bb782610ac9565b610bc18185610ad4565b935083602082028501610bd385610ae5565b8060005b85811015610c0f5784840389528151610bf08582610b8b565b9450610bfb83610b9f565b925060208a01995050600181019050610bd7565b50829750879550505050505092915050565b60006020820190508181036000830152610c3b8184610bac565b905092915050565b60008115159050919050565b610c5881610c43565b82525050565b6000604082019050610c7360008301856107cb565b610c806020830184610c4f565b9392505050565b60006020820190508181036000830152610ca18184610792565b905092915050565b7f4e487b7100000000000000000000000000000000000000000000000000000000600052602260045260246000fd5b60006002820490506001821680610cf057607f821691505b60208210811415610d0457610d03610ca9565b5b50919050565b7f4e487b7100000000000000000000000000000000000000000000000000000000600052603260045260246000fd5b7f4e487b7100000000000000000000000000000000000000000000000000000000600052601160045260246000fd5b6000610d73826106cf565b91507fffffffffffffffffffffffffffffffffffffffffffffffffffffffffffffffff821415610da657610da5610d39565b5b600182019050919050565b7f416c726561647920766f7465642e000000000000000000000000000000000000600082015250565b6000610de7600e8361073d565b9150610df282610db1565b602082019050919050565b60006020820190508181036000830152610e1681610dda565b9050919050565b6000610e28826106cf565b9150610e33836106cf565b9250827fffffffffffffffffffffffffffffffffffffffffffffffffffffffffffffffff03821115610e6857610e67610d39565b5b82820190509291505056fea264697066735822122020f66afe36def4369a6a4f59794f83f4ae90e2422cd39720776844635b92099864736f6c634300080a0033",
  "immutableReferences": {},
  "source": "//SPDX-License-Identifier: MIT\npragma solidity >=0.8.0 <0.9.0;\n\ncontract Vote {\n    \n    struct Voter {\n        uint ci;\n        bool voted;\n    }\n\n    struct Proposal {\n        string name;   // short name (up to 32 bytes)\n        uint voteCount; // number of accumulated votes\n    }\n\n    mapping(uint => Voter) public voters;\n\n    Proposal[] public proposals;\n    \n    \n\n    constructor() {\n        \n    }\n\n    function AddListas(string[] memory proposalNames) public {\n       for (uint i = 0; i < proposalNames.length; i++) {\n            proposals.push(\n                Proposal({\n                    name: proposalNames[i],\n                    voteCount: 0\n                })\n            );\n        }\n    }\n\n    /** \n     * @dev Store the person who vote. And compute the count in proposals\n     */\n    function vote(uint _proposal, uint _ci) public {\n        Voter storage sender = voters[_ci];\n        require(!sender.voted, \"Already voted.\");\n        sender.ci = _ci;\n        sender.voted = true;\n        proposals[_proposal].voteCount += 1;\n    }\n\n    /** \n     * @dev Computes the winning proposal taking all previous votes into account.\n     * @return winningProposal_ index of winning proposal in the proposals array\n     */\n    function winningProposal() public view\n            returns (uint winningProposal_)\n    {\n        uint winningVoteCount = 0;\n        for (uint p = 0; p < proposals.length; p++) {\n            if (proposals[p].voteCount > winningVoteCount) {\n                winningVoteCount = proposals[p].voteCount;\n                winningProposal_ = p;\n            }\n        }\n    }\n\n    /** \n     * @dev Calls winnerName() function to get the name od the proposal with the\n     * highest count\n     * @return winnerName_ the name of the winner\n     */\n    function winnerName() public view returns (string memory winnerName_)\n    {\n        winnerName_ = proposals[winningProposal()].name;\n    }\n\n    /** \n     * @dev Calls getStats() function to get the all the proposalt at the block\n     * @return proposals_ array\n     */\n    function getStats() public view returns (Proposal[] memory proposals_) {\n        return proposals;\n    }\n}\n\n",
  "sourcePath": "C:\\Users\\alekz\\OneDrive\\Documentos\\Tesis-e-vote-blockchain-MERN-master\\contracts\\Vote.sol",
  "compiler": {
    "name": "solc",
    "version": "0.8.10+commit.fc410830.Emscripten.clang"
  },
  "schemaVersion": "3.4.3",
  "updatedAt": "2022-02-18T15:51:16.831Z",
  "networkType": "ethereum",
  "devdoc": {
    "kind": "dev",
    "methods": {
      "getStats()": {
        "details": "Calls getStats() function to get the all the proposalt at the block",
        "returns": {
          "proposals_": "array"
        }
      },
      "vote(uint256,uint256)": {
        "details": "Store the person who vote. And compute the count in proposals"
      },
      "winnerName()": {
        "details": "Calls winnerName() function to get the name od the proposal with the highest count",
        "returns": {
          "winnerName_": "the name of the winner"
        }
      },
      "winningProposal()": {
        "details": "Computes the winning proposal taking all previous votes into account.",
        "returns": {
          "winningProposal_": "index of winning proposal in the proposals array"
        }
      }
    },
    "version": 1
  },
  "userdoc": {
    "kind": "user",
    "methods": {},
    "version": 1
  }
}