{
  "contractName": "Vote",
  "abi": [
    {
      "constant": true,
      "inputs": [
        {
          "name": "",
          "type": "uint256"
        }
      ],
      "name": "proposals",
      "outputs": [
        {
          "name": "name",
          "type": "string"
        },
        {
          "name": "voteCount",
          "type": "uint256"
        }
      ],
      "payable": false,
      "stateMutability": "view",
      "type": "function"
    },
    {
      "constant": true,
      "inputs": [
        {
          "name": "",
          "type": "uint256"
        }
      ],
      "name": "voters",
      "outputs": [
        {
          "name": "ci",
          "type": "uint256"
        },
        {
          "name": "voted",
          "type": "bool"
        }
      ],
      "payable": false,
      "stateMutability": "view",
      "type": "function"
    },
    {
      "constant": false,
      "inputs": [
        {
          "name": "proposalNames",
          "type": "string[]"
        }
      ],
      "name": "AddListas",
      "outputs": [],
      "payable": false,
      "stateMutability": "nonpayable",
      "type": "function"
    },
    {
      "constant": false,
      "inputs": [
        {
          "name": "_indexSession",
          "type": "uint256"
        },
        {
          "name": "_ci",
          "type": "uint256"
        }
      ],
      "name": "vote",
      "outputs": [],
      "payable": false,
      "stateMutability": "nonpayable",
      "type": "function"
    },
    {
      "constant": true,
      "inputs": [],
      "name": "winningProposal",
      "outputs": [
        {
          "name": "winningProposal_",
          "type": "uint256"
        }
      ],
      "payable": false,
      "stateMutability": "view",
      "type": "function"
    },
    {
      "constant": true,
      "inputs": [],
      "name": "empateLists",
      "outputs": [
        {
          "name": "empate",
          "type": "string"
        }
      ],
      "payable": false,
      "stateMutability": "view",
      "type": "function"
    },
    {
      "constant": true,
      "inputs": [],
      "name": "winnerName",
      "outputs": [
        {
          "name": "winnerName_",
          "type": "string"
        }
      ],
      "payable": false,
      "stateMutability": "view",
      "type": "function"
    },
    {
      "constant": true,
      "inputs": [],
      "name": "nameList",
      "outputs": [
        {
          "name": "winnerName_",
          "type": "string"
        }
      ],
      "payable": false,
      "stateMutability": "view",
      "type": "function"
    },
    {
      "constant": true,
      "inputs": [],
      "name": "getStats",
      "outputs": [
        {
          "components": [
            {
              "name": "name",
              "type": "string"
            },
            {
              "name": "voteCount",
              "type": "uint256"
            }
          ],
          "name": "proposals_",
          "type": "tuple[]"
        }
      ],
      "payable": false,
      "stateMutability": "view",
      "type": "function"
    }
  ],
  "bytecode": "0x608060405234801561001057600080fd5b50611239806100206000396000f3fe608060405260043610610093576000357c010000000000000000000000000000000000000000000000000000000090048063013cf08b146100985780632e5174bc146100d6578063303032e3146101015780634763ada41461012c578063609ff1bd14610155578063b384abef14610180578063c59d4847146101a9578063da58c7d9146101d4578063e2ba53f014610212575b600080fd5b3480156100a457600080fd5b506100bf60048036036100ba9190810190610e27565b61023d565b6040516100cd92919061103c565b60405180910390f35b3480156100e257600080fd5b506100eb610308565b6040516100f8919061101a565b60405180910390f35b34801561010d57600080fd5b506101166103ef565b604051610123919061101a565b60405180910390f35b34801561013857600080fd5b50610153600480360361014e9190810190610de6565b610624565b005b34801561016157600080fd5b5061016a6106c8565b604051610177919061108c565b60405180910390f35b34801561018c57600080fd5b506101a760048036036101a29190810190610e50565b610775565b005b3480156101b557600080fd5b506101be610838565b6040516101cb9190610ff8565b60405180910390f35b3480156101e057600080fd5b506101fb60048036036101f69190810190610e27565b610943565b6040516102099291906110a7565b60405180910390f35b34801561021e57600080fd5b50610227610974565b604051610234919061101a565b60405180910390f35b60018181548110151561024c57fe5b9060005260206000209060020201600091509050806000018054600181600116156101000203166002900480601f0160208091040260200160405190810160405280929190818152602001828054600181600116156101000203166002900480156102f85780601f106102cd576101008083540402835291602001916102f8565b820191906000526020600020905b8154815290600101906020018083116102db57829003601f168201915b5050505050908060010154905082565b606060636103146106c8565b1415610329576103226103ef565b90506103ec565b60016103336106c8565b81548110151561033f57fe5b90600052602060002090600202016000018054600181600116156101000203166002900480601f0160208091040260200160405190810160405280929190818152602001828054600181600116156101000203166002900480156103e45780601f106103b9576101008083540402835291602001916103e4565b820191906000526020600020905b8154815290600101906020018083116103c757829003601f168201915b505050505090505b90565b60606000809050600080905060008090505b60018054905081101561061e578260018281548110151561041e57fe5b90600052602060002090600202016001015411156104615760018181548110151561044557fe5b9060005260206000209060020201600101549250809150610611565b8260018281548110151561047157fe5b90600052602060002090600202016001015414156106105760018281548110151561049857fe5b90600052602060002090600202016000016001828154811015156104b857fe5b906000526020600020906002020160000160405160200180807fc2a148617920756e20656d7061746520656e747265206c6120000000000000008152506019018380546001816001161561010002031660029004801561054f5780601f1061052d57610100808354040283529182019161054f565b820191906000526020600020905b81548152906001019060200180831161053b575b5050807f2079200000000000000000000000000000000000000000000000000000000000815250600301828054600181600116156101000203166002900480156105d05780601f106105ae5761010080835404028352918201916105d0565b820191906000526020600020905b8154815290600101906020018083116105bc575b5050807f21000000000000000000000000000000000000000000000000000000000000008152506001019250505060405160208183030381529060405293505b5b8080600101915050610401565b50505090565b60008090505b81518110156106c45760016040805190810160405280848481518110151561064e57fe5b90602001906020020151815260200160008152509080600181540180825580915050906001820390600052602060002090600202016000909192909190915060008201518160000190805190602001906106a9929190610c61565b5060208201518160010155505050808060010191505061062a565b5050565b6000806000905060008090505b60018054905081101561077057816001828154811015156106f257fe5b90600052602060002090600202016001015411156107355760018181548110151561071957fe5b9060005260206000209060020201600101549150809250610763565b8160018281548110151561074557fe5b906000526020600020906002020160010154141561076257606392505b5b80806001019150506106d5565b505090565b600080600083815260200190815260200160002090508060010160009054906101000a900460ff161515156107df576040517f08c379a00000000000000000000000000000000000000000000000000000000081526004016107d69061106c565b60405180910390fd5b81816000018190555060018160010160006101000a81548160ff0219169083151502179055506001808481548110151561081557fe5b906000526020600020906002020160010160008282540192505081905550505050565b60606001805480602002602001604051908101604052809291908181526020016000905b8282101561093a5783829060005260206000209060020201604080519081016040529081600082018054600181600116156101000203166002900480601f0160208091040260200160405190810160405280929190818152602001828054600181600116156101000203166002900480156109185780601f106108ed57610100808354040283529160200191610918565b820191906000526020600020905b8154815290600101906020018083116108fb57829003601f168201915b505050505081526020016001820154815250508152602001906001019061085c565b50505050905090565b60006020528060005260406000206000915090508060000154908060010160009054906101000a900460ff16905082565b606060636109806106c8565b14156109955761098e6103ef565b9050610b05565b600161099f6106c8565b8154811015156109ab57fe5b90600052602060002090600202016000016109ec60016109c96106c8565b8154811015156109d557fe5b906000526020600020906002020160010154610b08565b6040516020018083805460018160011615610100020316600290048015610a4a5780601f10610a28576101008083540402835291820191610a4a565b820191906000526020600020905b815481529060010190602001808311610a36575b5050807f2020000000000000000000000000000000000000000000000000000000000000815250600201807f2020546f74616c20646520766f746f733a20000000000000000000000000000081525060120182805190602001908083835b602083101515610acd5780518252602082019150602081019050602083039250610aa8565b6001836020036101000a0380198251168184511680821785525050505050509050019250505060405160208183030381529060405290505b90565b60606000821415610b50576040805190810160405280600181526020017f30000000000000000000000000000000000000000000000000000000000000008152509050610c5c565b600082905060005b600082141515610b7e578080600101915050600a82811515610b7657fe5b049150610b58565b6060816040519080825280601f01601f191660200182016040528015610bb35781602001600182028038833980820191505090505b50905060006001830390505b600086141515610c5457600a86811515610bd557fe5b066030017f010000000000000000000000000000000000000000000000000000000000000002828280600190039350815181101515610c1057fe5b9060200101907effffffffffffffffffffffffffffffffffffffffffffffffffffffffffffff1916908160001a905350600a86811515610c4c57fe5b049550610bbf565b819450505050505b919050565b828054600181600116156101000203166002900490600052602060002090601f016020900481019282601f10610ca257805160ff1916838001178555610cd0565b82800160010185558215610cd0579182015b82811115610ccf578251825591602001919060010190610cb4565b5b509050610cdd9190610ce1565b5090565b610d0391905b80821115610cff576000816000905550600101610ce7565b5090565b90565b600082601f8301121515610d1957600080fd5b8135610d2c610d27826110fd565b6110d0565b9150818183526020840193506020810190508360005b83811015610d725781358601610d588882610d7c565b845260208401935060208301925050600181019050610d42565b5050505092915050565b600082601f8301121515610d8f57600080fd5b8135610da2610d9d82611125565b6110d0565b91508082526020830160208301858383011115610dbe57600080fd5b610dc98382846111ac565b50505092915050565b6000610dde82356111a2565b905092915050565b600060208284031215610df857600080fd5b600082013567ffffffffffffffff811115610e1257600080fd5b610e1e84828501610d06565b91505092915050565b600060208284031215610e3957600080fd5b6000610e4784828501610dd2565b91505092915050565b60008060408385031215610e6357600080fd5b6000610e7185828601610dd2565b9250506020610e8285828601610dd2565b9150509250929050565b6000610e978261115e565b80845260208401935083602082028501610eb085611151565b60005b84811015610ee9578383038852610ecb838351610fac565b9250610ed68261117f565b9150602088019750600181019050610eb3565b508196508694505050505092915050565b610f038161118c565b82525050565b6000610f1482611174565b808452610f288160208601602086016111bb565b610f31816111ee565b602085010191505092915050565b6000610f4a82611169565b808452610f5e8160208601602086016111bb565b610f67816111ee565b602085010191505092915050565b6000600e82527f416c726561647920766f7465642e0000000000000000000000000000000000006020830152604082019050919050565b60006040830160008301518482036000860152610fc98282610f3f565b9150506020830151610fde6020860182610fe9565b508091505092915050565b610ff281611198565b82525050565b600060208201905081810360008301526110128184610e8c565b905092915050565b600060208201905081810360008301526110348184610f09565b905092915050565b600060408201905081810360008301526110568185610f3f565b90506110656020830184610fe9565b9392505050565b6000602082019050818103600083015261108581610f75565b9050919050565b60006020820190506110a16000830184610fe9565b92915050565b60006040820190506110bc6000830185610fe9565b6110c96020830184610efa565b9392505050565b6000604051905081810181811067ffffffffffffffff821117156110f357600080fd5b8060405250919050565b600067ffffffffffffffff82111561111457600080fd5b602082029050602081019050919050565b600067ffffffffffffffff82111561113c57600080fd5b601f19601f8301169050602081019050919050565b6000602082019050919050565b600081519050919050565b600081519050919050565b600081519050919050565b6000602082019050919050565b60008115159050919050565b6000819050919050565b6000819050919050565b82818337600083830152505050565b60005b838110156111d95780820151818401526020810190506111be565b838111156111e8576000848401525b50505050565b6000601f19601f830116905091905056fea265627a7a723058206cb96fe27dda3b6edd3451256850852cb59288144f4d2b88b04bf73bb13c040f6c6578706572696d656e74616cf50037",
  "source": "//SPDX-License-Identifier: MIT\npragma solidity >=0.4.4 <0.7.0;\npragma experimental ABIEncoderV2;\n\n\ncontract Vote {\n    \n    struct Voter {\n        uint ci;\n        bool voted;\n    }\n\n    struct Proposal {\n        string name;   // short name (up to 32 bytes)\n        uint voteCount; // number of accumulated votes\n    }\n\n    mapping(uint => Voter) public voters;\n\n    Proposal[] public proposals;\n    \n    function AddListas(string[] memory proposalNames) public {\n       for (uint i = 0; i < proposalNames.length; i++) {\n            proposals.push(\n                Proposal({\n                    name: proposalNames[i],\n                    voteCount: 0\n                })\n            );\n        }\n    }\n\n    /** \n     * @dev Store the person who vote. And compute the count in proposals\n     */\n    function vote(uint _indexSession, uint _ci) public {\n        Voter storage sender = voters[_ci];\n        require(!sender.voted, \"Already voted.\");\n        sender.ci = _ci;\n        sender.voted = true;\n        proposals[_indexSession].voteCount += 1;\n    }\n\n\n    /** \n     * @dev Computes the winning proposal taking all previous votes into account.\n     * @return winningProposal_ index of winning proposal in the proposals array\n     */\n    function winningProposal() public view\n            returns (uint winningProposal_)\n    {\n        uint winningVoteCount = 0;\n        //Recorremos el array de listas para determinar la lista con un numero mayor de votos\n        for (uint p = 0; p < proposals.length; p++) {\n            if (proposals[p].voteCount > winningVoteCount) {\n                winningVoteCount = proposals[p].voteCount;\n                winningProposal_ = p;\n            }else{\n                //comprobamos si ha habido un empate entre los candidatos\n                if (proposals[p].voteCount == winningVoteCount) {\n                winningProposal_ = 99;\n            }\n            }\n        }\n    }\n\n\n    //funcion para conocer las listas que tienen empate\n     function empateLists() public view\n            returns (string memory empate)\n    {\n        uint winningVoteCount = 0;\n        uint listaMayor=0;\n    \n        //Recorremos el array de listas para determinar la lista con un numero mayor de votos\n        for (uint p = 0; p < proposals.length; p++) {\n            if (proposals[p].voteCount > winningVoteCount) {\n                winningVoteCount = proposals[p].voteCount;\n                listaMayor = p;\n                \n            }else{\n                //comprobamos si ha habido un empate entre los candidatos\n                if (proposals[p].voteCount == winningVoteCount) {\n                empate=string(abi.encodePacked(\"¡Hay un empate entre la \", proposals[listaMayor].name, \" y \",proposals[p].name,\"!\"));\n            }\n            }\n\n             \n        }\n    }\n\n    /** \n     * @dev Calls winnerName() function to get the name od the proposal with the\n     * highest count\n     * @return winnerName_ the name of the winner\n     */\n    function winnerName() public view returns (string memory winnerName_)\n    {\n\n        if(winningProposal()==99){\n            winnerName_=empateLists();\n        }else{\n            winnerName_ =string(abi.encodePacked(proposals[winningProposal()].name, \"  \",\"  Total de votos: \", \n                    uint2str(proposals[winningProposal()].voteCount)));\n        }\n        \n    }\n\n\n     function nameList() public view returns (string memory winnerName_)\n    {\n\n        if(winningProposal()==99){\n            winnerName_=empateLists();\n        }else{\n            winnerName_ =proposals[winningProposal()].name;\n                    \n        }\n        \n    }\n\n\nfunction uint2str(uint _i) internal pure returns (string memory _uintAsString) {\n        if (_i == 0) {\n            return \"0\";\n        }\n        uint j = _i;\n        uint len;\n        while (j != 0) {\n            len++;\n            j /= 10;\n        }\n        bytes memory bstr = new bytes(len);\n        uint k = len - 1;\n        while (_i != 0) {\n            bstr[k--] = byte(uint8(48 + _i % 10));\n            _i /= 10;\n        }\n        return string(bstr);\n    }\n    \n    /** \n     * @dev Calls getStats() function to get the all the proposalt at the block\n     * @return proposals_ array\n     */\n    function getStats() public view returns (Proposal[] memory proposals_) {\n        return proposals;\n    }\n}\n\n",
  "sourcePath": "C:\\Users\\alekz\\OneDrive\\Documentos\\Tesis-e-vote-blockchain-MERN-master\\contracts\\Vote.sol",
  "compiler": {
    "name": "solc",
    "version": "0.5.1+commit.c8a2cb62.Emscripten.clang"
  },
  "schemaVersion": "3.4.4",
  "updatedAt": "2022-04-07T03:52:04.314Z",
  "networkType": "ethereum",
  "devdoc": {
    "methods": {
      "getStats()": {
        "details": "Calls getStats() function to get the all the proposalt at the block",
        "return": "proposals_ array"
      },
      "vote(uint256,uint256)": {
        "details": "Store the person who vote. And compute the count in proposals"
      },
      "winnerName()": {
        "details": "Calls winnerName() function to get the name od the proposal with the highest count",
        "return": "winnerName_ the name of the winner"
      },
      "winningProposal()": {
        "details": "Computes the winning proposal taking all previous votes into account.",
        "return": "winningProposal_ index of winning proposal in the proposals array"
      }
    }
  },
  "userdoc": {
    "methods": {}
  }
}